{
  "_format": "hh-sol-artifact-1",
  "contractName": "SecureBank",
  "sourceName": "contracts/SecureBank.sol",
  "abi": [
    {
      "inputs": [
        {
          "internalType": "address",
          "name": "",
          "type": "address"
        }
      ],
      "name": "balances",
      "outputs": [
        {
          "internalType": "uint256",
          "name": "",
          "type": "uint256"
        }
      ],
      "stateMutability": "view",
      "type": "function"
    },
    {
      "inputs": [],
      "name": "deposit",
      "outputs": [],
      "stateMutability": "payable",
      "type": "function"
    },
    {
      "inputs": [],
      "name": "getBalance",
      "outputs": [
        {
          "internalType": "uint256",
          "name": "",
          "type": "uint256"
        }
      ],
      "stateMutability": "view",
      "type": "function"
    },
    {
      "inputs": [],
      "name": "withdraw",
      "outputs": [],
      "stateMutability": "nonpayable",
      "type": "function"
    }
  ],
  "bytecode": "0x608060405234801561001057600080fd5b506102b5806100206000396000f3fe60806040526004361061003f5760003560e01c806312065fe01461004457806327e235e3146100655780633ccfd60b14610092578063d0e30db0146100a9575b600080fd5b34801561005057600080fd5b50475b60405190815260200160405180910390f35b34801561007157600080fd5b50610053610080366004610228565b60006020819052908152604090205481565b34801561009e57600080fd5b506100a76100b1565b005b6100a7610202565b60015460ff16156100f95760405162461bcd60e51b815260206004820152600d60248201526c4e6f207265656e7472616e637960981b60448201526064015b60405180910390fd5b6001805460ff191681179055336000908152602081905260409020548061015b5760405162461bcd60e51b81526020600482015260166024820152754e6f2062616c616e636520746f20776974686472617760501b60448201526064016100f0565b336000818152602081905260408082208290555190919083908381818185875af1925050503d80600081146101ac576040519150601f19603f3d011682016040523d82523d6000602084013e6101b1565b606091505b50509050806101f45760405162461bcd60e51b815260206004820152600f60248201526e151c985b9cd9995c8819985a5b1959608a1b60448201526064016100f0565b50506001805460ff19169055565b3360009081526020819052604081208054349290610221908490610258565b9091555050565b60006020828403121561023a57600080fd5b81356001600160a01b038116811461025157600080fd5b9392505050565b8082018082111561027957634e487b7160e01b600052601160045260246000fd5b9291505056fea2646970667358221220a6bdd4860e6ad25c7b33c3beff89f4b03bd55b177448d8a3110b5a7292ca2c6064736f6c63430008130033",
  "linkReferences": {},
  "deployedLinkReferences": {}
}