{
  "_format": "hh-sol-artifact-1",
  "contractName": "DeFiLending",
  "sourceName": "contracts/DeFiLending.sol",
  "abi": [
    {
      "inputs": [
        {
          "internalType": "address",
          "name": "_token",
          "type": "address"
        }
      ],
      "stateMutability": "nonpayable",
      "type": "constructor"
    },
    {
      "anonymous": false,
      "inputs": [
        {
          "indexed": true,
          "internalType": "address",
          "name": "user",
          "type": "address"
        },
        {
          "indexed": false,
          "internalType": "uint256",
          "name": "amount",
          "type": "uint256"
        }
      ],
      "name": "Borrowed",
      "type": "event"
    },
    {
      "anonymous": false,
      "inputs": [
        {
          "indexed": true,
          "internalType": "address",
          "name": "user",
          "type": "address"
        },
        {
          "indexed": false,
          "internalType": "uint256",
          "name": "amount",
          "type": "uint256"
        }
      ],
      "name": "Deposited",
      "type": "event"
    },
    {
      "anonymous": false,
      "inputs": [
        {
          "indexed": true,
          "internalType": "address",
          "name": "user",
          "type": "address"
        },
        {
          "indexed": false,
          "internalType": "uint256",
          "name": "deposited",
          "type": "uint256"
        },
        {
          "indexed": false,
          "internalType": "uint256",
          "name": "timePassed",
          "type": "uint256"
        },
        {
          "indexed": false,
          "internalType": "uint256",
          "name": "interest",
          "type": "uint256"
        }
      ],
      "name": "InterestCalculated",
      "type": "event"
    },
    {
      "anonymous": false,
      "inputs": [
        {
          "indexed": true,
          "internalType": "address",
          "name": "user",
          "type": "address"
        },
        {
          "indexed": true,
          "internalType": "address",
          "name": "liquidator",
          "type": "address"
        },
        {
          "indexed": false,
          "internalType": "uint256",
          "name": "amount",
          "type": "uint256"
        }
      ],
      "name": "Liquidated",
      "type": "event"
    },
    {
      "anonymous": false,
      "inputs": [
        {
          "indexed": true,
          "internalType": "address",
          "name": "previousOwner",
          "type": "address"
        },
        {
          "indexed": true,
          "internalType": "address",
          "name": "newOwner",
          "type": "address"
        }
      ],
      "name": "OwnershipTransferred",
      "type": "event"
    },
    {
      "anonymous": false,
      "inputs": [
        {
          "indexed": true,
          "internalType": "address",
          "name": "user",
          "type": "address"
        },
        {
          "indexed": false,
          "internalType": "uint256",
          "name": "amount",
          "type": "uint256"
        }
      ],
      "name": "Repaid",
      "type": "event"
    },
    {
      "anonymous": false,
      "inputs": [
        {
          "indexed": true,
          "internalType": "address",
          "name": "user",
          "type": "address"
        },
        {
          "indexed": false,
          "internalType": "uint256",
          "name": "amount",
          "type": "uint256"
        }
      ],
      "name": "Withdrawn",
      "type": "event"
    },
    {
      "inputs": [],
      "name": "BORROW_RATE",
      "outputs": [
        {
          "internalType": "uint256",
          "name": "",
          "type": "uint256"
        }
      ],
      "stateMutability": "view",
      "type": "function"
    },
    {
      "inputs": [],
      "name": "DEPOSIT_RATE",
      "outputs": [
        {
          "internalType": "uint256",
          "name": "",
          "type": "uint256"
        }
      ],
      "stateMutability": "view",
      "type": "function"
    },
    {
      "inputs": [
        {
          "internalType": "uint256",
          "name": "amount",
          "type": "uint256"
        }
      ],
      "name": "borrow",
      "outputs": [],
      "stateMutability": "nonpayable",
      "type": "function"
    },
    {
      "inputs": [
        {
          "internalType": "uint256",
          "name": "amount",
          "type": "uint256"
        }
      ],
      "name": "deposit",
      "outputs": [],
      "stateMutability": "nonpayable",
      "type": "function"
    },
    {
      "inputs": [
        {
          "internalType": "address",
          "name": "userAddress",
          "type": "address"
        }
      ],
      "name": "getUserInfo",
      "outputs": [
        {
          "internalType": "uint256",
          "name": "deposited",
          "type": "uint256"
        },
        {
          "internalType": "uint256",
          "name": "borrowed",
          "type": "uint256"
        },
        {
          "internalType": "uint256",
          "name": "available",
          "type": "uint256"
        }
      ],
      "stateMutability": "view",
      "type": "function"
    },
    {
      "inputs": [
        {
          "internalType": "address",
          "name": "userAddress",
          "type": "address"
        }
      ],
      "name": "liquidate",
      "outputs": [],
      "stateMutability": "nonpayable",
      "type": "function"
    },
    {
      "inputs": [],
      "name": "owner",
      "outputs": [
        {
          "internalType": "address",
          "name": "",
          "type": "address"
        }
      ],
      "stateMutability": "view",
      "type": "function"
    },
    {
      "inputs": [],
      "name": "renounceOwnership",
      "outputs": [],
      "stateMutability": "nonpayable",
      "type": "function"
    },
    {
      "inputs": [
        {
          "internalType": "uint256",
          "name": "amount",
          "type": "uint256"
        }
      ],
      "name": "repay",
      "outputs": [],
      "stateMutability": "nonpayable",
      "type": "function"
    },
    {
      "inputs": [
        {
          "internalType": "address",
          "name": "userAddress",
          "type": "address"
        },
        {
          "internalType": "uint256",
          "name": "borrowedAmount",
          "type": "uint256"
        }
      ],
      "name": "testSetUndercollateralized",
      "outputs": [],
      "stateMutability": "nonpayable",
      "type": "function"
    },
    {
      "inputs": [],
      "name": "token",
      "outputs": [
        {
          "internalType": "contract IERC20",
          "name": "",
          "type": "address"
        }
      ],
      "stateMutability": "view",
      "type": "function"
    },
    {
      "inputs": [],
      "name": "totalBorrows",
      "outputs": [
        {
          "internalType": "uint256",
          "name": "",
          "type": "uint256"
        }
      ],
      "stateMutability": "view",
      "type": "function"
    },
    {
      "inputs": [],
      "name": "totalDeposits",
      "outputs": [
        {
          "internalType": "uint256",
          "name": "",
          "type": "uint256"
        }
      ],
      "stateMutability": "view",
      "type": "function"
    },
    {
      "inputs": [
        {
          "internalType": "address",
          "name": "newOwner",
          "type": "address"
        }
      ],
      "name": "transferOwnership",
      "outputs": [],
      "stateMutability": "nonpayable",
      "type": "function"
    },
    {
      "inputs": [
        {
          "internalType": "address",
          "name": "",
          "type": "address"
        }
      ],
      "name": "users",
      "outputs": [
        {
          "internalType": "uint256",
          "name": "deposited",
          "type": "uint256"
        },
        {
          "internalType": "uint256",
          "name": "borrowed",
          "type": "uint256"
        },
        {
          "internalType": "uint256",
          "name": "lastUpdated",
          "type": "uint256"
        }
      ],
      "stateMutability": "view",
      "type": "function"
    },
    {
      "inputs": [],
      "name": "utilizationRate",
      "outputs": [
        {
          "internalType": "uint256",
          "name": "",
          "type": "uint256"
        }
      ],
      "stateMutability": "view",
      "type": "function"
    },
    {
      "inputs": [
        {
          "internalType": "uint256",
          "name": "amount",
          "type": "uint256"
        }
      ],
      "name": "withdraw",
      "outputs": [],
      "stateMutability": "nonpayable",
      "type": "function"
    },
    {
      "inputs": [
        {
          "internalType": "uint256",
          "name": "amount",
          "type": "uint256"
        }
      ],
      "name": "withdrawProtocolFees",
      "outputs": [],
      "stateMutability": "nonpayable",
      "type": "function"
    }
  ],
  "bytecode": "0x608060405234801561001057600080fd5b5060405161132e38038061132e83398101604081905261002f916100b9565b600160005561003d33610067565b600280546001600160a01b0319166001600160a01b03831617905561006133610067565b506100e9565b600180546001600160a01b038381166001600160a01b0319831681179093556040519116919082907f8be0079c531659141344cd1fd0a4f28419497f9722a3daafe3b4186f6b6457e090600090a35050565b6000602082840312156100cb57600080fd5b81516001600160a01b03811681146100e257600080fd5b9392505050565b611236806100f86000396000f3fe608060405234801561001057600080fd5b50600436106101165760003560e01c8063715018a6116100a2578063b6b55f2511610071578063b6b55f251461023c578063b9c3a04c1461024f578063c5ebeaec14610257578063f2fde38b1461026a578063fc0c546a1461027d57600080fd5b8063715018a6146101d75780637d882097146101df5780638da5cb5b146101e8578063a87430ba1461020d57600080fd5b80634f449138116100e95780634f44913814610172578063602839db146101855780636386c1c71461018d5780636403a78e146101bb5780636c321c8a146101ce57600080fd5b80632e1a7d4d1461011b5780632f86556814610130578063371fd8e61461014357806347bd371814610156575b600080fd5b61012e610129366004611069565b610290565b005b61012e61013e36600461109e565b610450565b61012e610151366004611069565b61066f565b61015f60055481565b6040519081526020015b60405180910390f35b61012e610180366004611069565b610816565b61015f600581565b6101a061019b36600461109e565b6109a3565b60408051938452602084019290925290820152606001610169565b61012e6101c93660046110c0565b6109f8565b61015f60065481565b61012e610a9b565b61015f60045481565b6001546001600160a01b03165b6040516001600160a01b039091168152602001610169565b6101a061021b36600461109e565b60036020526000908152604090208054600182015460029092015490919083565b61012e61024a366004611069565b610aaf565b61015f600381565b61012e610265366004611069565b610bf3565b61012e61027836600461109e565b610da6565b6002546101f5906001600160a01b031681565b610298610e1c565b600081116102c15760405162461bcd60e51b81526004016102b8906110ea565b60405180910390fd5b6102ca33610e75565b336000908152600360205260408120600181015481549192916102ed9190611137565b90508083111561033f5760405162461bcd60e51b815260206004820152601e60248201527f496e73756666696369656e7420617661696c61626c652062616c616e6365000060448201526064016102b8565b828260000160008282546103539190611137565b92505081905550826004600082825461036c9190611137565b9091555061037a9050610f8e565b60025460405163a9059cbb60e01b8152336004820152602481018590526001600160a01b039091169063a9059cbb906044016020604051808303816000875af11580156103cb573d6000803e3d6000fd5b505050506040513d601f19601f820116820180604052508101906103ef9190611150565b61040b5760405162461bcd60e51b81526004016102b890611172565b60405183815233907f7084f5476618d8e60b11ef0d7d3f06914655adb8793e28ff7f018d4c76d505d5906020015b60405180910390a2505061044d6001600055565b50565b610458610e1c565b6001600160a01b038116600090815260036020526040902061047982610e75565b805460009060649061048c90604661119b565b61049691906111b2565b9050808260010154116104eb5760405162461bcd60e51b815260206004820152601f60248201527f55736572206973206e6f7420756e646572636f6c6c61746572616c697a65640060448201526064016102b8565b6001820154600060646104ff83606e61119b565b61050991906111b2565b905060008460010181905550808460000160008282546105299190611137565b9250508190555081600560008282546105429190611137565b92505081905550806004600082825461055b9190611137565b909155505060025460405163a9059cbb60e01b8152336004820152602481018390526001600160a01b039091169063a9059cbb906044016020604051808303816000875af11580156105b1573d6000803e3d6000fd5b505050506040513d601f19601f820116820180604052508101906105d59190611150565b6106215760405162461bcd60e51b815260206004820152601b60248201527f4c69717569646174696f6e207472616e73666572206661696c6564000000000060448201526064016102b8565b60405181815233906001600160a01b038716907fde0aa27286f5cb3a4ed853dc4823ead62d63e92cdf13de09d6aece56970721a49060200160405180910390a35050505061044d6001600055565b610677610e1c565b600081116106975760405162461bcd60e51b81526004016102b8906110ea565b6106a033610e75565b33600090815260036020526040902060018101548211156107035760405162461bcd60e51b815260206004820152601960248201527f526570617920616d6f756e74206578636565647320646562740000000000000060448201526064016102b8565b6002546040516323b872dd60e01b8152336004820152306024820152604481018490526001600160a01b03909116906323b872dd906064016020604051808303816000875af115801561075a573d6000803e3d6000fd5b505050506040513d601f19601f8201168201806040525081019061077e9190611150565b61079a5760405162461bcd60e51b81526004016102b890611172565b818160010160008282546107ae9190611137565b9250508190555081600560008282546107c79190611137565b909155506107d59050610f8e565b60405182815233907f0516911bcc3a0a7412a44601057c0a0a1ec628bde049a84284bc428866534488906020015b60405180910390a25061044d6001600055565b61081e610fbd565b600480546002546040516370a0823160e01b815230938101939093526000926001600160a01b03909116906370a0823190602401602060405180830381865afa15801561086f573d6000803e3d6000fd5b505050506040513d601f19601f8201168201806040525081019061089391906111d4565b61089d9190611137565b9050808211156108ef5760405162461bcd60e51b815260206004820152601a60248201527f496e73756666696369656e742070726f746f636f6c206665657300000000000060448201526064016102b8565b6002546001600160a01b031663a9059cbb6109126001546001600160a01b031690565b6040516001600160e01b031960e084901b1681526001600160a01b039091166004820152602481018590526044016020604051808303816000875af115801561095f573d6000803e3d6000fd5b505050506040513d601f19601f820116820180604052508101906109839190611150565b61099f5760405162461bcd60e51b81526004016102b890611172565b5050565b6001600160a01b03811660009081526003602090815260408083208151606081018352815480825260018301549482018590526002909201549281019290925292906109ef8385611137565b93959294505050565b6001600160a01b0382166000908152600360205260409020600181018054908390558154606490610a2a90604661119b565b610a3491906111b2565b8311610a825760405162461bcd60e51b815260206004820152601760248201527f4e6f7420756e646572636f6c6c61746572616c697a656400000000000000000060448201526064016102b8565b6005805482900384019055610a95610f8e565b50505050565b610aa3610fbd565b610aad6000611017565b565b610ab7610e1c565b60008111610ad75760405162461bcd60e51b81526004016102b8906110ea565b6002546040516323b872dd60e01b8152336004820152306024820152604481018390526001600160a01b03909116906323b872dd906064016020604051808303816000875af1158015610b2e573d6000803e3d6000fd5b505050506040513d601f19601f82011682018060405250810190610b529190611150565b610b6e5760405162461bcd60e51b81526004016102b890611172565b610b7733610e75565b336000908152600360205260408120805490918391839190610b9a9084906111ed565b925050819055508160046000828254610bb391906111ed565b90915550610bc19050610f8e565b60405182815233907f2da466a7b24304f47e87fa2e1e5a81b9831ce54fec19055ce277ca2f39ba42c490602001610803565b610bfb610e1c565b60008111610c1b5760405162461bcd60e51b81526004016102b8906110ea565b610c2433610e75565b3360009081526003602052604081208054909190606490610c4690604661119b565b610c5091906111b2565b905080838360010154610c6391906111ed565b1115610ca85760405162461bcd60e51b8152602060048201526014602482015273115e18d959591cc8189bdc9c9bddc81b1a5b5a5d60621b60448201526064016102b8565b82826001016000828254610cbc91906111ed565b925050819055508260056000828254610cd591906111ed565b90915550610ce39050610f8e565b60025460405163a9059cbb60e01b8152336004820152602481018590526001600160a01b039091169063a9059cbb906044016020604051808303816000875af1158015610d34573d6000803e3d6000fd5b505050506040513d601f19601f82011682018060405250810190610d589190611150565b610d745760405162461bcd60e51b81526004016102b890611172565b60405183815233907fac59582e5396aca512fa873a2047e7f4c80f8f55d4a06cb34a78a0187f62719f90602001610439565b610dae610fbd565b6001600160a01b038116610e135760405162461bcd60e51b815260206004820152602660248201527f4f776e61626c653a206e6577206f776e657220697320746865207a65726f206160448201526564647265737360d01b60648201526084016102b8565b61044d81611017565b600260005403610e6e5760405162461bcd60e51b815260206004820152601f60248201527f5265656e7472616e637947756172643a207265656e7472616e742063616c6c0060448201526064016102b8565b6002600055565b6001600160a01b03811660009081526003602052604081206002810154909103610ea3574260029091015550565b6000816002015442610eb59190611137565b9050600081118015610ec75750815415155b15610f8357600063bbf81e008260038560000154610ee5919061119b565b610eef919061119b565b610ef991906111b2565b90508015610f815780836000016000828254610f1591906111ed565b925050819055508060046000828254610f2e91906111ed565b90915550508254604080519182526020820184905281018290526001600160a01b038516907f327810d52c13b1d656026983839cecdd6765c1191cc84f287c15a207343176f69060600160405180910390a25b505b504260029091015550565b60045415610fb657600454600554610fa790606461119b565b610fb191906111b2565b600655565b6000600655565b6001546001600160a01b03163314610aad5760405162461bcd60e51b815260206004820181905260248201527f4f776e61626c653a2063616c6c6572206973206e6f7420746865206f776e657260448201526064016102b8565b600180546001600160a01b038381166001600160a01b0319831681179093556040519116919082907f8be0079c531659141344cd1fd0a4f28419497f9722a3daafe3b4186f6b6457e090600090a35050565b60006020828403121561107b57600080fd5b5035919050565b80356001600160a01b038116811461109957600080fd5b919050565b6000602082840312156110b057600080fd5b6110b982611082565b9392505050565b600080604083850312156110d357600080fd5b6110dc83611082565b946020939093013593505050565b6020808252601d908201527f416d6f756e74206d7573742062652067726561746572207468616e2030000000604082015260600190565b634e487b7160e01b600052601160045260246000fd5b8181038181111561114a5761114a611121565b92915050565b60006020828403121561116257600080fd5b815180151581146110b957600080fd5b6020808252600f908201526e151c985b9cd9995c8819985a5b1959608a1b604082015260600190565b808202811582820484141761114a5761114a611121565b6000826111cf57634e487b7160e01b600052601260045260246000fd5b500490565b6000602082840312156111e657600080fd5b5051919050565b8082018082111561114a5761114a61112156fea26469706673582212203d6ae634c95773e934edd9a7bfec295c24945760c391cf1ed4c98d53638fd07564736f6c63430008130033",
  "linkReferences": {},
  "deployedLinkReferences": {}
}