{
  "_format": "hh-sol-artifact-1",
  "contractName": "DeFiLending",
  "sourceName": "contracts/DeFiLending.sol",
  "abi": [
    {
      "inputs": [
        {
          "internalType": "address",
          "name": "_token",
          "type": "address"
        }
      ],
      "stateMutability": "nonpayable",
      "type": "constructor"
    },
    {
      "anonymous": false,
      "inputs": [
        {
          "indexed": true,
          "internalType": "address",
          "name": "user",
          "type": "address"
        },
        {
          "indexed": false,
          "internalType": "uint256",
          "name": "amount",
          "type": "uint256"
        }
      ],
      "name": "Borrowed",
      "type": "event"
    },
    {
      "anonymous": false,
      "inputs": [
        {
          "indexed": true,
          "internalType": "address",
          "name": "user",
          "type": "address"
        },
        {
          "indexed": false,
          "internalType": "uint256",
          "name": "amount",
          "type": "uint256"
        }
      ],
      "name": "Deposited",
      "type": "event"
    },
    {
      "anonymous": false,
      "inputs": [
        {
          "indexed": true,
          "internalType": "address",
          "name": "user",
          "type": "address"
        },
        {
          "indexed": false,
          "internalType": "uint256",
          "name": "deposited",
          "type": "uint256"
        },
        {
          "indexed": false,
          "internalType": "uint256",
          "name": "timePassed",
          "type": "uint256"
        },
        {
          "indexed": false,
          "internalType": "uint256",
          "name": "interest",
          "type": "uint256"
        }
      ],
      "name": "InterestCalculated",
      "type": "event"
    },
    {
      "anonymous": false,
      "inputs": [
        {
          "indexed": true,
          "internalType": "address",
          "name": "user",
          "type": "address"
        },
        {
          "indexed": true,
          "internalType": "address",
          "name": "liquidator",
          "type": "address"
        },
        {
          "indexed": false,
          "internalType": "uint256",
          "name": "amount",
          "type": "uint256"
        }
      ],
      "name": "Liquidated",
      "type": "event"
    },
    {
      "anonymous": false,
      "inputs": [
        {
          "indexed": true,
          "internalType": "address",
          "name": "previousOwner",
          "type": "address"
        },
        {
          "indexed": true,
          "internalType": "address",
          "name": "newOwner",
          "type": "address"
        }
      ],
      "name": "OwnershipTransferred",
      "type": "event"
    },
    {
      "anonymous": false,
      "inputs": [
        {
          "indexed": true,
          "internalType": "address",
          "name": "user",
          "type": "address"
        },
        {
          "indexed": false,
          "internalType": "uint256",
          "name": "amount",
          "type": "uint256"
        }
      ],
      "name": "Repaid",
      "type": "event"
    },
    {
      "anonymous": false,
      "inputs": [
        {
          "indexed": true,
          "internalType": "address",
          "name": "user",
          "type": "address"
        },
        {
          "indexed": false,
          "internalType": "uint256",
          "name": "amount",
          "type": "uint256"
        }
      ],
      "name": "Withdrawn",
      "type": "event"
    },
    {
      "inputs": [],
      "name": "BORROW_RATE",
      "outputs": [
        {
          "internalType": "uint256",
          "name": "",
          "type": "uint256"
        }
      ],
      "stateMutability": "view",
      "type": "function"
    },
    {
      "inputs": [],
      "name": "DEPOSIT_RATE",
      "outputs": [
        {
          "internalType": "uint256",
          "name": "",
          "type": "uint256"
        }
      ],
      "stateMutability": "view",
      "type": "function"
    },
    {
      "inputs": [
        {
          "internalType": "uint256",
          "name": "amount",
          "type": "uint256"
        }
      ],
      "name": "borrow",
      "outputs": [],
      "stateMutability": "nonpayable",
      "type": "function"
    },
    {
      "inputs": [
        {
          "internalType": "uint256",
          "name": "amount",
          "type": "uint256"
        }
      ],
      "name": "deposit",
      "outputs": [],
      "stateMutability": "nonpayable",
      "type": "function"
    },
    {
      "inputs": [
        {
          "internalType": "address",
          "name": "userAddress",
          "type": "address"
        }
      ],
      "name": "getUserInfo",
      "outputs": [
        {
          "internalType": "uint256",
          "name": "deposited",
          "type": "uint256"
        },
        {
          "internalType": "uint256",
          "name": "borrowed",
          "type": "uint256"
        },
        {
          "internalType": "uint256",
          "name": "available",
          "type": "uint256"
        }
      ],
      "stateMutability": "view",
      "type": "function"
    },
    {
      "inputs": [
        {
          "internalType": "address",
          "name": "userAddress",
          "type": "address"
        }
      ],
      "name": "liquidate",
      "outputs": [],
      "stateMutability": "nonpayable",
      "type": "function"
    },
    {
      "inputs": [],
      "name": "owner",
      "outputs": [
        {
          "internalType": "address",
          "name": "",
          "type": "address"
        }
      ],
      "stateMutability": "view",
      "type": "function"
    },
    {
      "inputs": [],
      "name": "renounceOwnership",
      "outputs": [],
      "stateMutability": "nonpayable",
      "type": "function"
    },
    {
      "inputs": [
        {
          "internalType": "uint256",
          "name": "amount",
          "type": "uint256"
        }
      ],
      "name": "repay",
      "outputs": [],
      "stateMutability": "nonpayable",
      "type": "function"
    },
    {
      "inputs": [],
      "name": "token",
      "outputs": [
        {
          "internalType": "contract IERC20",
          "name": "",
          "type": "address"
        }
      ],
      "stateMutability": "view",
      "type": "function"
    },
    {
      "inputs": [],
      "name": "totalBorrows",
      "outputs": [
        {
          "internalType": "uint256",
          "name": "",
          "type": "uint256"
        }
      ],
      "stateMutability": "view",
      "type": "function"
    },
    {
      "inputs": [],
      "name": "totalDeposits",
      "outputs": [
        {
          "internalType": "uint256",
          "name": "",
          "type": "uint256"
        }
      ],
      "stateMutability": "view",
      "type": "function"
    },
    {
      "inputs": [
        {
          "internalType": "address",
          "name": "newOwner",
          "type": "address"
        }
      ],
      "name": "transferOwnership",
      "outputs": [],
      "stateMutability": "nonpayable",
      "type": "function"
    },
    {
      "inputs": [
        {
          "internalType": "address",
          "name": "",
          "type": "address"
        }
      ],
      "name": "users",
      "outputs": [
        {
          "internalType": "uint256",
          "name": "deposited",
          "type": "uint256"
        },
        {
          "internalType": "uint256",
          "name": "borrowed",
          "type": "uint256"
        },
        {
          "internalType": "uint256",
          "name": "lastUpdated",
          "type": "uint256"
        }
      ],
      "stateMutability": "view",
      "type": "function"
    },
    {
      "inputs": [],
      "name": "utilizationRate",
      "outputs": [
        {
          "internalType": "uint256",
          "name": "",
          "type": "uint256"
        }
      ],
      "stateMutability": "view",
      "type": "function"
    },
    {
      "inputs": [
        {
          "internalType": "uint256",
          "name": "amount",
          "type": "uint256"
        }
      ],
      "name": "withdraw",
      "outputs": [],
      "stateMutability": "nonpayable",
      "type": "function"
    },
    {
      "inputs": [
        {
          "internalType": "uint256",
          "name": "amount",
          "type": "uint256"
        }
      ],
      "name": "withdrawProtocolFees",
      "outputs": [],
      "stateMutability": "nonpayable",
      "type": "function"
    }
  ],
  "bytecode": "0x608060405234801561001057600080fd5b5060405161123e38038061123e83398101604081905261002f916100b9565b600160005561003d33610067565b600280546001600160a01b0319166001600160a01b03831617905561006133610067565b506100e9565b600180546001600160a01b038381166001600160a01b0319831681179093556040519116919082907f8be0079c531659141344cd1fd0a4f28419497f9722a3daafe3b4186f6b6457e090600090a35050565b6000602082840312156100cb57600080fd5b81516001600160a01b03811681146100e257600080fd5b9392505050565b611146806100f86000396000f3fe608060405234801561001057600080fd5b506004361061010b5760003560e01c8063715018a6116100a2578063b6b55f2511610071578063b6b55f251461021e578063b9c3a04c14610231578063c5ebeaec14610239578063f2fde38b1461024c578063fc0c546a1461025f57600080fd5b8063715018a6146101b95780637d882097146101c15780638da5cb5b146101ca578063a87430ba146101ef57600080fd5b80634f449138116100de5780634f44913814610167578063602839db1461017a5780636386c1c7146101825780636c321c8a146101b057600080fd5b80632e1a7d4d146101105780632f86556814610125578063371fd8e61461013857806347bd37181461014b575b600080fd5b61012361011e366004610fb1565b610272565b005b610123610133366004610fca565b610432565b610123610146366004610fb1565b610651565b61015460055481565b6040519081526020015b60405180910390f35b610123610175366004610fb1565b6107f8565b610154600581565b610195610190366004610fca565b610985565b6040805193845260208401929092529082015260600161015e565b61015460065481565b6101236109da565b61015460045481565b6001546001600160a01b03165b6040516001600160a01b03909116815260200161015e565b6101956101fd366004610fca565b60036020526000908152604090208054600182015460029092015490919083565b61012361022c366004610fb1565b6109ee565b610154600381565b610123610247366004610fb1565b610b32565b61012361025a366004610fca565b610ce5565b6002546101d7906001600160a01b031681565b61027a610d5b565b600081116102a35760405162461bcd60e51b815260040161029a90610ffa565b60405180910390fd5b6102ac33610db4565b336000908152600360205260408120600181015481549192916102cf9190611047565b9050808311156103215760405162461bcd60e51b815260206004820152601e60248201527f496e73756666696369656e7420617661696c61626c652062616c616e63650000604482015260640161029a565b828260000160008282546103359190611047565b92505081905550826004600082825461034e9190611047565b9091555061035c9050610ed6565b60025460405163a9059cbb60e01b8152336004820152602481018590526001600160a01b039091169063a9059cbb906044016020604051808303816000875af11580156103ad573d6000803e3d6000fd5b505050506040513d601f19601f820116820180604052508101906103d19190611060565b6103ed5760405162461bcd60e51b815260040161029a90611082565b60405183815233907f7084f5476618d8e60b11ef0d7d3f06914655adb8793e28ff7f018d4c76d505d5906020015b60405180910390a2505061042f6001600055565b50565b61043a610d5b565b6001600160a01b038116600090815260036020526040902061045b82610db4565b805460009060649061046e9060466110ab565b61047891906110c2565b9050808260010154116104cd5760405162461bcd60e51b815260206004820152601f60248201527f55736572206973206e6f7420756e646572636f6c6c61746572616c697a656400604482015260640161029a565b6001820154600060646104e183606e6110ab565b6104eb91906110c2565b9050600084600101819055508084600001600082825461050b9190611047565b9250508190555081600560008282546105249190611047565b92505081905550806004600082825461053d9190611047565b909155505060025460405163a9059cbb60e01b8152336004820152602481018390526001600160a01b039091169063a9059cbb906044016020604051808303816000875af1158015610593573d6000803e3d6000fd5b505050506040513d601f19601f820116820180604052508101906105b79190611060565b6106035760405162461bcd60e51b815260206004820152601b60248201527f4c69717569646174696f6e207472616e73666572206661696c65640000000000604482015260640161029a565b60405181815233906001600160a01b038716907fde0aa27286f5cb3a4ed853dc4823ead62d63e92cdf13de09d6aece56970721a49060200160405180910390a35050505061042f6001600055565b610659610d5b565b600081116106795760405162461bcd60e51b815260040161029a90610ffa565b61068233610db4565b33600090815260036020526040902060018101548211156106e55760405162461bcd60e51b815260206004820152601960248201527f526570617920616d6f756e742065786365656473206465627400000000000000604482015260640161029a565b6002546040516323b872dd60e01b8152336004820152306024820152604481018490526001600160a01b03909116906323b872dd906064016020604051808303816000875af115801561073c573d6000803e3d6000fd5b505050506040513d601f19601f820116820180604052508101906107609190611060565b61077c5760405162461bcd60e51b815260040161029a90611082565b818160010160008282546107909190611047565b9250508190555081600560008282546107a99190611047565b909155506107b79050610ed6565b60405182815233907f0516911bcc3a0a7412a44601057c0a0a1ec628bde049a84284bc428866534488906020015b60405180910390a25061042f6001600055565b610800610f05565b600480546002546040516370a0823160e01b815230938101939093526000926001600160a01b03909116906370a0823190602401602060405180830381865afa158015610851573d6000803e3d6000fd5b505050506040513d601f19601f8201168201806040525081019061087591906110e4565b61087f9190611047565b9050808211156108d15760405162461bcd60e51b815260206004820152601a60248201527f496e73756666696369656e742070726f746f636f6c2066656573000000000000604482015260640161029a565b6002546001600160a01b031663a9059cbb6108f46001546001600160a01b031690565b6040516001600160e01b031960e084901b1681526001600160a01b039091166004820152602481018590526044016020604051808303816000875af1158015610941573d6000803e3d6000fd5b505050506040513d601f19601f820116820180604052508101906109659190611060565b6109815760405162461bcd60e51b815260040161029a90611082565b5050565b6001600160a01b03811660009081526003602090815260408083208151606081018352815480825260018301549482018590526002909201549281019290925292906109d18385611047565b93959294505050565b6109e2610f05565b6109ec6000610f5f565b565b6109f6610d5b565b60008111610a165760405162461bcd60e51b815260040161029a90610ffa565b6002546040516323b872dd60e01b8152336004820152306024820152604481018390526001600160a01b03909116906323b872dd906064016020604051808303816000875af1158015610a6d573d6000803e3d6000fd5b505050506040513d601f19601f82011682018060405250810190610a919190611060565b610aad5760405162461bcd60e51b815260040161029a90611082565b610ab633610db4565b336000908152600360205260408120805490918391839190610ad99084906110fd565b925050819055508160046000828254610af291906110fd565b90915550610b009050610ed6565b60405182815233907f2da466a7b24304f47e87fa2e1e5a81b9831ce54fec19055ce277ca2f39ba42c4906020016107e5565b610b3a610d5b565b60008111610b5a5760405162461bcd60e51b815260040161029a90610ffa565b610b6333610db4565b3360009081526003602052604081208054909190606490610b859060466110ab565b610b8f91906110c2565b905080838360010154610ba291906110fd565b1115610be75760405162461bcd60e51b8152602060048201526014602482015273115e18d959591cc8189bdc9c9bddc81b1a5b5a5d60621b604482015260640161029a565b82826001016000828254610bfb91906110fd565b925050819055508260056000828254610c1491906110fd565b90915550610c229050610ed6565b60025460405163a9059cbb60e01b8152336004820152602481018590526001600160a01b039091169063a9059cbb906044016020604051808303816000875af1158015610c73573d6000803e3d6000fd5b505050506040513d601f19601f82011682018060405250810190610c979190611060565b610cb35760405162461bcd60e51b815260040161029a90611082565b60405183815233907fac59582e5396aca512fa873a2047e7f4c80f8f55d4a06cb34a78a0187f62719f9060200161041b565b610ced610f05565b6001600160a01b038116610d525760405162461bcd60e51b815260206004820152602660248201527f4f776e61626c653a206e6577206f776e657220697320746865207a65726f206160448201526564647265737360d01b606482015260840161029a565b61042f81610f5f565b600260005403610dad5760405162461bcd60e51b815260206004820152601f60248201527f5265656e7472616e637947756172643a207265656e7472616e742063616c6c00604482015260640161029a565b6002600055565b6001600160a01b03811660009081526003602052604081206002810154909103610de2574260029091015550565b6000816002015442610df49190611047565b9050600081118015610e065750815415155b15610ecb576000606460038460000154610e2091906110ab565b610e2a91906110c2565b905060006301e13380610e3d84846110ab565b610e4791906110c2565b905080846000016000828254610e5d91906110fd565b925050819055508060046000828254610e7691906110fd565b90915550508354604080519182526020820185905281018290526001600160a01b038616907f327810d52c13b1d656026983839cecdd6765c1191cc84f287c15a207343176f69060600160405180910390a250505b504260029091015550565b60045415610efe57600454600554610eef9060646110ab565b610ef991906110c2565b600655565b6000600655565b6001546001600160a01b031633146109ec5760405162461bcd60e51b815260206004820181905260248201527f4f776e61626c653a2063616c6c6572206973206e6f7420746865206f776e6572604482015260640161029a565b600180546001600160a01b038381166001600160a01b0319831681179093556040519116919082907f8be0079c531659141344cd1fd0a4f28419497f9722a3daafe3b4186f6b6457e090600090a35050565b600060208284031215610fc357600080fd5b5035919050565b600060208284031215610fdc57600080fd5b81356001600160a01b0381168114610ff357600080fd5b9392505050565b6020808252601d908201527f416d6f756e74206d7573742062652067726561746572207468616e2030000000604082015260600190565b634e487b7160e01b600052601160045260246000fd5b8181038181111561105a5761105a611031565b92915050565b60006020828403121561107257600080fd5b81518015158114610ff357600080fd5b6020808252600f908201526e151c985b9cd9995c8819985a5b1959608a1b604082015260600190565b808202811582820484141761105a5761105a611031565b6000826110df57634e487b7160e01b600052601260045260246000fd5b500490565b6000602082840312156110f657600080fd5b5051919050565b8082018082111561105a5761105a61103156fea26469706673582212204ef2530f9a3848558f1bb8816f602898df8a31a0a1f29038c26316e562dd775264736f6c63430008130033",
  "linkReferences": {},
  "deployedLinkReferences": {}
}