{
  "_format": "hh-sol-artifact-1",
  "contractName": "MaliciousBorrower",
  "sourceName": "contracts/MaliciousBorrower.sol",
  "abi": [
    {
      "inputs": [
        {
          "internalType": "address",
          "name": "_lendingPool",
          "type": "address"
        },
        {
          "internalType": "address",
          "name": "_token",
          "type": "address"
        }
      ],
      "stateMutability": "nonpayable",
      "type": "constructor"
    },
    {
      "stateMutability": "payable",
      "type": "fallback"
    },
    {
      "inputs": [
        {
          "internalType": "uint256",
          "name": "amount",
          "type": "uint256"
        }
      ],
      "name": "attack",
      "outputs": [],
      "stateMutability": "nonpayable",
      "type": "function"
    },
    {
      "inputs": [],
      "name": "lendingPool",
      "outputs": [
        {
          "internalType": "address",
          "name": "",
          "type": "address"
        }
      ],
      "stateMutability": "view",
      "type": "function"
    },
    {
      "inputs": [],
      "name": "token",
      "outputs": [
        {
          "internalType": "contract IERC20",
          "name": "",
          "type": "address"
        }
      ],
      "stateMutability": "view",
      "type": "function"
    },
    {
      "stateMutability": "payable",
      "type": "receive"
    }
  ],
  "bytecode": "0x608060405234801561001057600080fd5b506040516104f13803806104f183398101604081905261002f9161007c565b600080546001600160a01b039384166001600160a01b031991821617909155600180549290931691161790556100af565b80516001600160a01b038116811461007757600080fd5b919050565b6000806040838503121561008f57600080fd5b61009883610060565b91506100a660208401610060565b90509250929050565b610433806100be6000396000f3fe6080604052600436106100385760003560e01c806364dd891a146100e1578063a59a997314610101578063fc0c546a1461013d5761003f565b3661003f57005b60008054604051670de0b6b3a764000060248201526001600160a01b039091169060440160408051601f198184030181529181526020820180516001600160e01b031663317afabb60e21b17905251610098919061038c565b6000604051808303816000865af19150503d80600081146100d5576040519150601f19603f3d011682016040523d82523d6000602084013e6100da565b606091505b505090505b005b3480156100ed57600080fd5b506100df6100fc3660046103bb565b61015d565b34801561010d57600080fd5b50600054610121906001600160a01b031681565b6040516001600160a01b03909116815260200160405180910390f35b34801561014957600080fd5b50600154610121906001600160a01b031681565b60015460005460405163095ea7b360e01b81526001600160a01b0391821660048201526024810184905291169063095ea7b3906044016020604051808303816000875af11580156101b2573d6000803e3d6000fd5b505050506040513d601f19601f820116820180604052508101906101d691906103d4565b5060008054604051602481018490526001600160a01b039091169060440160408051601f198184030181529181526020820180516001600160e01b031663b6b55f2560e01b17905251610229919061038c565b6000604051808303816000865af19150503d8060008114610266576040519150601f19603f3d011682016040523d82523d6000602084013e61026b565b606091505b50509050806102b25760405162461bcd60e51b815260206004820152600e60248201526d11195c1bdcda5d0819985a5b195960921b60448201526064015b60405180910390fd5b600054604051602481018490526001600160a01b039091169060440160408051601f198184030181529181526020820180516001600160e01b031663317afabb60e21b17905251610303919061038c565b6000604051808303816000865af19150503d8060008114610340576040519150601f19603f3d011682016040523d82523d6000602084013e610345565b606091505b505080915050806103885760405162461bcd60e51b815260206004820152600d60248201526c109bdc9c9bddc819985a5b1959609a1b60448201526064016102a9565b5050565b6000825160005b818110156103ad5760208186018101518583015201610393565b506000920191825250919050565b6000602082840312156103cd57600080fd5b5035919050565b6000602082840312156103e657600080fd5b815180151581146103f657600080fd5b939250505056fea2646970667358221220dcc6ca2e1566ec94c62de376c35673c6d4812e7b6d832ff5ff2cad20b148babb64736f6c63430008130033",
  "linkReferences": {},
  "deployedLinkReferences": {}
}